:020000040800F2
:10000000A8060020F50A0008B1010008B3010008A5
:10001000B7010008BB010008BF0100080000000094
:10002000000000000000000000000000C301000804
:10003000C501000800000000C7010008C901000850
:100040000F0B00080F0B00080F0B00080F0B000828
:100050000F0B00080F0B00080F0B00080F0B000818
:100060000F0B0008A3070008C30700080F0B0008C8
:100070000F0B00080F0B00080F0B00080F0B0008F8
:100080000F0B00080F0B00080F0B00080F0B0008E8
:100090000F0B00080F0B00080F0B00080F0B0008D8
:1000A0000F0B00080F0B00080F0B00080F0B0008C8
:1000B0000F0B00080F0B00080F0B00080F0B0008B8
:1000C0000F0B00080F0B00080F0B00080F0B0008A8
:1000D0000F0B0008770900080F0B00080F0B000832
:1000E0000F0B00080F0B00080F0B000800F002F8C0
:1000F00000F03FF80AA090E8000C82448344AAF183
:100100000107DA4501D100F034F8AFF2090EBAE880
:100110000F0013F0010F18BFFB1A43F0010318473B
:100120009C240000BC240000103A24BF78C878C189
:10013000FAD8520724BF30C830C144BF04680C60ED
:10014000704700000023002400250026103A28BF35
:1001500078C1FBD8520728BF30C148BF0B60704739
:10016000642901F05787002070471FB51FBD10B5E7
:1001700010BD02F017F81146FFF7F7FF00F008F87E
:1001800002F035F803B4FFF7F2FF03BC00F098FB70
:1001900000F02CFB4FF4E13000F0A1FB00F065FA19
:1001A00000F004F900F070FA00F0B2FA00BFFEE7C8
:1001B000704700BFFEE700BFFEE700BFFEE700BFDD
:1001C000FEE7704770477047704700000CB500208D
:1001D000019000906C48006840F480306A490860E3
:1001E00000BF6948006800F4003000900198401C8E
:1001F0000190009818B90198B0F5A06FF1D162484C
:10020000006800F4003010B10120009001E00020EF
:1002100000900098012843D15C48006840F010002D
:100220005A4908600846006820F003000860084644
:10023000006840F002000860534840685249486036
:100240000846406848600846406840F4806048605E
:100250000846406820F47C1048600846406840F436
:10026000E81048600846006840F08070086000BFF1
:100270004548006800F000700028F9D04248406806
:1002800020F00300404948600846406840F0020002
:10029000486000BF3C48406800F00C000828F9D1D5
:1002A0000CBD10B5FFF792FF10BD10B536480068C1
:1002B00040F001003449086008464068344908406D
:1002C0003149486008460068324908402E490860B4
:1002D0000846006820F4802008600846406820F442
:1002E000FE0048604FF41F008860FFF7DAFF4FF010
:1002F00000602949086010BD10B5002100200022CF
:10030000214B5B6803F00C0121B1042906D00829B8
:1003100028D107E0214B224C236027E01F4B204CC3
:10032000236023E0184B5B6803F47010164B5B6886
:1003300003F48032022303EB904022B9194B43436C
:10034000174C23600DE0104B5B6803F4003323B1BE
:10035000144B4343124C236003E0104B4343104CB7
:10036000236003E00D4B0E4C236000BF00BF064B23
:100370005B68C3F303130C4CE15C094B1B68CB4077
:10038000074C236010BD0000001002400020024016
:100390000000FFF8FFFFF6FE08ED00E000127A0013
:1003A0000000002000093D000400002000B587B0D7
:1003B00001214FF4017000F0D9FE4FF4004000F02D
:1003C00039FE0220ADF8040000208DF8070001A9D5
:1003D000484800F00FFC484801F09EF900200290C8
:1003E0008DF80C008DF80D004FF460200490002073
:1003F000059001208DF8180002A93F4801F0B3F9DB
:1004000001213D4801F0DBF93B4801F0FAF900BF5A
:10041000394801F0FBF90028FAD1374801F000FA19
:1004200000BF354801F001FA0028FAD107B000BD3D
:1004300010B50723012211462F4801F02CFA0121A3
:100440002D4801F0FCF900BF02212B4801F068FBA8
:100450000028F9D0284801F085FA10BD2DE9F05F99
:10046000002500260524322739E0781EC7B2FFF7A1
:10047000DFFF0646052C2DD0C4F1050001F0A6FFD4
:100480008246284601F0BAFF83461C4901F0CAFFA4
:100490008146514601F0B8FE804601F077FF80B2F8
:1004A000B04215DBC4F1050001F090FF82462846FA
:1004B00001F0A4FF8346124901F0B4FF8146514682
:1004C00001F0A2FE804601F061FF80B2B04201DD82
:1004D000062400253544601EC4B2781EC7B20CB194
:1004E000002FC2D1A8B2C4F1050190FBF1F080B297
:1004F000BDE8F09F00080140002401409A99993F0F
:10050000CDCC4C3F00B587B0012141F2050000F091
:100510002DFE0121082000F029FEE020ADF80400A6
:1005200018208DF8070003208DF8060001A9534814
:1005300000F060FB03208DF8060014208DF8070002
:100540004FF44060ADF8040001A94D4800F052FBA3
:100550004FF48070ADF8040010208DF8070001A959
:10056000464800F047FB4FF48071444800F0EFFB31
:100570000020ADF808004FF48270ADF80A000020AA
:10058000ADF80C00ADF80E00ADF810004FF400709F
:10059000ADF812002820ADF814000020ADF81600C8
:1005A0000720ADF8180002A9364801F091FB01219F
:1005B000344801F032FC07B000BD70B504464FF678
:1005C000FF7000EA84054FF480712C4800F0C1FBF5
:1005D0000A2000F024F9290A2A4801F04FFC00BF44
:1005E0000221284801F09DFC0028F9D0E9B22548F5
:1005F00001F044FC00BF0221224801F092FC0028D7
:10060000F9D00A2000F00BF94FF480711B4800F07C
:100610009EFB022000F003F970BD70B504460D4644
:1006200054B94FF48061164800F091FB4FF400611B
:10063000134800F08EFB14E0012C08D1E1021048B1
:1006400000F085FBA1020E4800F083FB09E04FF4A7
:1006500000610B4800F07BFB4FF48061084800F01C
:1006600076FB2846FFF7A9FF70BD10B5FFF74AFFDC
:1006700001210220FFF7D1FF10BD0000000801405A
:10068000000C01400030014008B50121042000F0B9
:100690006DFD03208DF8020010208DF8030001206D
:1006A000ADF800006946194800F0A4FA0121174886
:1006B00000F04FFB14208DF803000420ADF800007B
:1006C0006946124800F096FA0421104800F03FFBFA
:1006D00008BD10B5044644B904210C4800F037FBAE
:1006E00001210A4800F033FB0EE0012C08D104215F
:1006F000064800F02EFB0121044800F028FB03E02F
:100700000121024800F025FB10BD00000008014057
:100710001FB50121042000F029FD0121084600F049
:1007200025FD1820ADF8000048208DF8030069462B
:100730002C4800F05FFA0321002000F071FB042137
:10074000002000F06DFB0820029000208DF80C00C6
:100750000C208DF80D0001208DF80E0002A801F08C
:1007600011FA1020029002A801F00CFA09208DF86D
:10077000040002208DF805008DF8060001208DF898
:10078000070001A800F05FFF0A208DF80400022096
:100790008DF8050001208DF8060001A800F053FF38
:1007A0001FBD10B5012000F05EF808210D4800F0D3
:1007B000B4FA10B901200C490870082001F059FA68
:1007C00010BD10B5012000F04EF81021054800F0D2
:1007D000A4FA10B9002004490870102001F049FA69
:1007E00010BD0000000801401400002010B56FF09B
:1007F000040000F072FF2E4800682E49B0FBF1F0B3
:100800002D4908700846007800EB4001C1EBC0108C
:100810004FF6FF7101EAC0002849088010BD01466B
:10082000254A12784A434FF0E0235A6100229A6128
:100830001A46126942F001021A6100BF4FF0E0222D
:10084000106900F001021AB100F48032002AF5D0DC
:100850004FF0E022126922F001024FF0E0231A610A
:1008600000229A6170470146144A12884A434FF0A9
:10087000E0235A6100229A611A46126942F001028D
:100880001A6100BF4FF0E022106900F001021AB1B6
:1008900000F48032002AF5D04FF0E022126922F0F5
:1008A00001024FF0E0231A6100229A6170470000B4
:1008B0000000002000127A0016000020180000201E
:1008C000014600BF704700BF7F4A128802F0400215
:1008D000002AF9D0C2B27C4B1B1D1A80704710B59C
:1008E00086B00446012144F2040000F03FFC4FF4BE
:1008F0000070ADF8140003208DF8160018208DF854
:10090000170005A9714800F075F94FF48060ADF843
:10091000140004208DF8170005A96C4800F06AF94E
:1009200025208DF8000003208DF801008DF80200CD
:1009300001208DF80300684600F085FE0194002038
:10094000ADF80800ADF80A00ADF80C00ADF81000E5
:100950000C20ADF80E0001A95B4800F0AEFC0122AE
:1009600040F22551584800F040FD0121564800F062
:1009700030FD06B010BD10B540F22551524800F0D0
:1009800019FE002854D0504800F094FDC4B2412C08
:1009900005D101204E4908704E48047014E04C48BF
:1009A0000078002810DD302C0BDB392C09DC49489D
:1009B00047490978445446480078401C4449087027
:1009C00002E000204249087041480078052879D1AA
:1009D00000203F4908703F484078302807D03D4804
:1009E0004078312803D03B484078322826D1394816
:1009F00080783038642148433649C978303901EB72
:100A0000810100EB41013348007930380844324914
:100A10000880304949783039C8B22F490988FFF732
:100A2000FCFD2C484078322803D10220FFF751FE0C
:100A300048E02A480078FFF74CFE43E0254840781C
:100A4000332803D02348407834282ED12148007918
:100A500030382049C978303901EB810100EB410081
:100A60001F4908801B4880783038642148431D495D
:100A7000086011E01B4A128891B2164A5278333A44
:100A8000D0B2FFF7CAFD16480088FFF7ECFE154804
:100A90000068143813490860124800680028E9DC2F
:100AA00001210220FFF7B9FD0CE00A484078342804
:100AB00008D1FFF7D3FC0C490880084601880BA039
:100AC00001F068FA10BD0000003801400008014044
:100AD0001C0000201D000020220000201400002027
:100AE0002C00002028000020260000206125640D35
:100AF0000A0000000948804709480047FEE7FEE772
:100B0000FEE7FEE7FEE7FEE7FEE7FEE7FEE7FEE7BD
:100B100004480549054A064B70470000AB0200082F
:100B2000ED000008A8000020A8060020A802002070
:100B3000A802002010B50446CC48844208D1012107
:100B4000042000F02DFB0021042000F029FB46E0EA
:100B5000C748844208D10121082000F021FB002170
:100B6000082000F01DFB3AE0C248844208D1012170
:100B7000102000F015FB0021102000F011FB2EE0EA
:100B8000BD48844208D10121202000F009FB00214A
:100B9000202000F005FB22E0B848844208D1012162
:100BA000402000F0FDFA0021402000F0F9FA16E0A4
:100BB000B348844208D10121802000F0F1FA0021DD
:100BC000802000F0EDFA0AE0AE48844207D101210E
:100BD000801500F0E5FA0021A01500F0E1FA10BD43
:100BE00010B50121084600F0DBFA0021012000F0D9
:100BF000D7FA10BD2DE9F04102460025002600205D
:100C000000230024002791F803C00CF00F0591F891
:100C100003C00CF0100CBCF1000F03D091F802C01F
:100C20004CEA050591F800C0BCF1000F31D0146802
:100C300000202BE04FF0010C0CFA00F3B1F800C0DB
:100C40000CEA03069E4220D183004FF00F0C0CFAF1
:100C500003F7BC4305FA03FC4CEA040491F803C013
:100C6000BCF1280F06D14FF0010C0CFA00FCC2F8C1
:100C700014C00AE091F803C0BCF1480F05D14FF051
:100C8000010C0CFA00FCC2F810C0401C0828D1D39B
:100C90001460B1F800C0BCF1FF0F34DD54680020CF
:100CA0002EE000F1080C4FF0010808FA0CF3B1F83F
:100CB00000C00CEA03069E4221D183004FF00F0CC6
:100CC0000CFA03F7BC4305FA03FC4CEA040491F860
:100CD00003C0BCF1280F05D100F1080C08FA0CF88C
:100CE000C2F8148091F803C0BCF1480F07D100F19D
:100CF000080C4FF0010808FA0CF8C2F81080401CEC
:100D00000828CED35460BDE8F0814FF6FF71018012
:100D1000022181700421C17070470246002093684F
:100D20000B400BB1012000E00020704701468868AD
:100D300080B2704702460020D3680B400BB10120FF
:100D400000E0002070470146C86880B2704701612A
:100D50007047416170470AB1016100E0416170472D
:100D6000C16070474FF480320A43826181618261C1
:100D700082698269704702460020434B18684FF62B
:100D80008073184040EA021008433F4B18607047D8
:100D90003E49C8617047F0B50A460023002400218F
:100DA000002500F00046B6F1004F02D1364EF16941
:100DB00001E0354E7168C0F3034583B200F440167C
:100DC000B6F5401F08D121F070612F4E766826F0ED
:100DD00070662D4F7E6012E000F48016B6F5801F1D
:100DE00006D1032606FA05F4A14341F0706106E03E
:100DF000460D360103FA06F6B14341F0706122B1A7
:100E0000460D360103FA06F6314300F00046B6F10E
:100E1000004F02D11C4EF16101E01B4E7160F0BD2C
:100E200030B500228B071C0F0F2303FA04F2164B78
:100E300008338C1053F824309343134C08348D102E
:100E400044F8253023468C1053F824308C07240FA7
:100E500000FA04F423430C4C08348D1044F8253078
:100E600030BD0A49DC3108607047000000080140CD
:100E7000000C014000100140001401400018014026
:100E8000001C014000200140000001400000204201
:100E9000DF48006840F00100DD490860084640680E
:100EA000DC490840DA49486008460068DA490840E9
:100EB000D74908600846006820F48020086008468A
:100EC000406820F4FE0048604FF41F0088607047BF
:100ED000CF49096821F48031CD4A11601146096873
:100EE00021F480211160B0F5803F03D0B0F5802F50
:100EF0000ED106E0C649096841F48031C44A116048
:100F000007E0C349096841F4A021C14A116000E02B
:100F100000BF00BF704710B501460022002300202B
:100F20004A11012A02D1BA4C236806E0022A02D1F2
:100F3000B74C236A01E0B64C636A01F01F0201243A
:100F400094401C400CB1012000E0002010BD38B5D9
:100F5000002000900024002500BF3120FFF7DBFFB8
:100F600005460098401C00900098B0F5A06F01D095
:100F7000002DF2D03120FFF7CEFF08B1012400E0B0
:100F80000024204638BD01460020A14A106820F008
:100F9000F80040EAC10010607047A049086070473F
:100FA000024600209A4B586820F47C1042EA010364
:100FB0001843974B58607047984908667047014638
:100FC0000020934A506820F00300084350607047A7
:100FD0008F48406800F00C007047014600208C4AA2
:100FE000506820F0F0000843506070470146002030
:100FF000874A506820F4E06008435060704701461B
:101000000020834A506820F4605040EAC1005060DC
:10101000704729B17E4A527A02437D4B5A7204E0EE
:101020007B4A527A82437A4B5A7270477B49D83155
:101030000860704701460020754A506820F440401F
:101040000843506070470021714A20321170704A85
:1010500082F82010012802D004280AD104E00121DE
:101060006B4A2032117005E00521694A2032117067
:1010700000E000BF00BF70476949086070476449DD
:10108000096A0143624A1162704765494439086040
:10109000704730B500210022002400235C4D6D68AC
:1010A00005F00C0121B1042905D0082923D105E060
:1010B0005C4D056022E05B4D05601FE0544D6D689E
:1010C00005F47012524D6D6805F48034022505EB6D
:1010D00092421CB9544D554305600BE04C4D6D6870
:1010E00005F400351DB1504D5543056002E04D4DEE
:1010F0005543056002E04B4D056000BF00BF444D05
:101100006D6805F0F0010909484D6B5C0568DD402C
:1011100045603F4D6D6805F4E061090A434D6B5C25
:101120004568DD4085603A4D6D6805F46051C90A37
:101130003E4D6B5C4568DD40C560354D6D6805F41E
:101140004041890B3A4D6B5CC568B5FBF3F5056111
:1011500030BD29B12E4A526902432D4B5A6104E039
:101160002B4A526982432A4B5A61704729B1284A57
:1011700092690243264B9A6104E0254A92698243B0
:10118000234B9A61704729B1214AD2690243204B0F
:10119000DA6104E01E4AD26982431D4BDA6170476E
:1011A00029B11B4AD2680243194BDA6004E0184A9D
:1011B000D2688243164BDA60704729B1144A12692B
:1011C0000243134B1A6104E0114A12698243104B27
:1011D0001A61704712494039086070470F49C86466
:1011E00070470B49C87170470948406A40F08070E9
:1011F00007494862704701460020054A92680A4044
:101200000AB1012000E00020704701498872704750
:10121000001002400000FFF8FFFFF6FE000042420F
:101220008004424200127A0000093D003400002090
:101230004400002010B50446FB48844209D1012136
:101240008803FFF7ADFF00214FF48040FFF7A8FFB0
:1012500032E0F648844209D101214804FFF7ADFF8E
:1012600000214FF40030FFF7A8FF25E0F04884424A
:1012700009D101218804FFF7A0FF00214FF480204D
:10128000FFF79BFF18E0EB48844209D10121C80415
:10129000FFF793FF00214FF40020FFF78EFF0BE0D4
:1012A000E548844208D101210805FFF786FF0021A7
:1012B0004FF48010FFF781FF10BD2DE9F04786B095
:1012C00005460E460024A24600BFA1460027B0896D
:1012D00000B100BF2F462C8A4CF6FF700440F08806
:1012E00004432C82AC894EF6F3100440B088318957
:1012F0000843718908430443AC81AC8A4FF6FF4030
:101300000440B0890443AC8201A8FFF7C2FEC6487E
:10131000874202D1DDF810A001E0DDF80CA0A88919
:1013200000F4004040B10AEBCA0000EB0A1031683B
:101330004900B0FBF1F807E00AEBCA0000EB0A1025
:1013400031688900B0FBF1F86420B8FBF0F00401CB
:101350002009642101FB1089A88900F4004040B1F4
:10136000322000EBC900B0FBF1F000F007000443AD
:1013700008E0322000EB09106421B0FBF1F000F02E
:101380000F0004432C8106B0BDE8F0874FF41651DE
:10139000016000218180C18001810C2141810021F7
:1013A0008181704710B502460020108A4FF2FF037A
:1013B00018400B884C8823438C882343CC882343D4
:1013C0001843108210BD0021018041808180C180BE
:1013D000704721B1828942F40052828104E08289FF
:1013E0004DF6FF731A4082817047F0B50346002422
:1013F00000260025002040F66A17B94200D100BF40
:101400001846C1F3421401F01F06012707FA06F53A
:10141000012C01D10C3004E0022C01D1103000E08D
:1014200014301AB107682F43076002E00768AF4322
:101430000760F0BD1AB1838A0B43838202E0838A7E
:101440008B4383827047028A4FF6F0731A40028200
:10145000028A0A430282704782894FF2FF731A4060
:10146000828182890A438281704721B1828942F058
:101470000202828104E082894FF6FD731A40828164
:101480007047028A4FF6DF731A400282028A0A43CB
:101490000282704721B1028A42F48042028204E053
:1014A000028A4BF6FF731A4002827047C1F30802AA
:1014B0008280704701468888C0F3080070478189A0
:1014C00041F0010181817047028BD2B20283028B0D
:1014D00042EA012202837047028B02F47F420283B8
:1014E000028B0A430283704721B1828A42F02002B4
:1014F000828204E0828A4FF6DF731A40828270474C
:1015000021B1828A42F01002828204E0828A4FF680
:10151000EF731A408282704721B1828A42F008023A
:10152000828204E0828A4FF6F7731A408282704703
:1015300021B1828942F40042828103E08289C2F3B0
:101540000E028281704721B1828A42F40062828257
:1015500004E0828A4FF2FF731A4082827047828AC7
:101560004FF6FB731A408282828A0A438282704756
:1015700021B1828A42F00202828204E0828A4FF61E
:10158000FD731A408282704702460020B1F5007F49
:1015900000D100BF13880B400BB1012000E00020F8
:1015A000704701F40072B2F5007F00D100BFCA435A
:1015B0000280704770B502460024002300250020F9
:1015C00040F66A16B14200D100BFC1F3421501F0E6
:1015D0001F03012606FA03F3012D02D19689334039
:1015E00006E0022D02D1168A334001E0968A33408C
:1015F0000C12012606FA04F41688344013B10CB11B
:10160000012000E0002070BD10B50022002340F64C
:101610006A14A14200D100BF0A1201249440A3B26F
:10162000DC43048010BD000000380140004400404D
:1016300000480040004C0040005000403149014348
:10164000314A1160704770B5002100230F22C47821
:1016500004B32D4C246804F4E064C4F5E064210A6A
:10166000C1F10403CA40447804FA03F184781440B9
:1016700021430901254C0678A155047804F01F0583
:101680000124AC4005786D11AD0005F1E025C5F8E9
:10169000004109E0047804F01F050124AC401C4D12
:1016A0000678761145F8264070BD1A4A0A40024372
:1016B000154B1B1F1A60704739B1134A121D12686F
:1016C0000243114B1B1D1A6006E00F4A121D1268DF
:1016D00082430D4B1B1D1A607047042808D14FF040
:1016E000E021096941F004014FF0E022116107E0B7
:1016F0004FF0E021096921F004014FF0E02211616F
:10170000704700000000FA050CED00E000E400E086
:1017100080E100E080FFFF1F10B50446FA488442D4
:1017200008D101214015FFF73BFD00216015FFF7AF
:1017300037FD17E0F548844208D101210015FFF775
:101740002FFD00212015FFF72BFD0BE0F048844210
:1017500008D10121C803FFF723FD00214FF4004009
:10176000FFF71EFD10BD30B5024600200023506873
:10177000E84C20400D790C6844EA05242043506071
:101780009068E54C2040D1E902542C434D7944EA5D
:10179000450420439060D06A20F470000C7C641EE5
:1017A000E4B2234340EA0350D06230BD002101601F
:1017B000017141718160C16001210174704721B1E3
:1017C000826842F00102826003E0826822F0010236
:1017D0008260704721B1826842F48072826003E0C7
:1017E000826822F480728260704710B50023CBB209
:1017F0001AB144681C43446002E044689C4344605E
:1018000010BD816841F008018160704701460020E9
:101810008A6802F008020AB1012000E00020704747
:10182000816841F0040181607047014600208A68A8
:1018300002F004020AB1012000E00020704721B14B
:10184000826842F4A002826003E0826822F4A0026F
:1018500082607047014600208A6802F480020AB163
:10186000012000E00020704710B50A460021002347
:10187000416821F46041531E41EA4331416010BD8B
:1018800021B1426842F40062426003E0426822F4FF
:10189000006242607047F0B504460D46002000210A
:1018A000092D11DDE068A5F10A0606EB46070726BB
:1018B00006FA07F18843A5F10A0606EB460603FA85
:1018C00006F10843E0600CE0206905EB45070726B8
:1018D00006FA07F1884305EB450603FA06F10843CB
:1018E0002061072A0FDA606B561E06EB86071F265B
:1018F00006FA07F18843561E06EB860605FA06F13E
:101900000843606322E00D2A0FDA206BD61F06EB36
:1019100086071F2606FA07F18843D61F06EB8606C0
:1019200005FA06F10843206310E0E06AA2F10D0613
:1019300006EB86071F2606FA07F18843A2F10D067B
:1019400006EB860605FA06F10843E062F0BD21B118
:10195000826842F48012826003E0826822F480127E
:10196000826070470146C86C80B2704766484C3050
:101970000068704721B1426842F48062426003E02F
:10198000426822F480624260704721B1426842F4AA
:101990008052426003E0426822F480524260704705
:1019A0000A460021816821F4E041114381607047BB
:1019B00021B1826842F40042826003E0826822F42E
:1019C00000428260704721B1826842F40212826054
:1019D00003E0826822F40212826070470146002010
:1019E0008A6802F400120AB1012000E0002070476A
:1019F000F0B504461546002000220026092911DD15
:101A0000E068A1F10A0707EB470C072707FA0CF279
:101A10009043A1F10A0707EB470703FA07F21043C7
:101A2000E0600CE0206901EB410C072707FA0CF29B
:101A3000904301EB410703FA07F210432061A06BCA
:101A4000C0F30156EF1C06F1010CA7EB0C0707EBE6
:101A5000870C1F2707FA0CF29043EF1C06F1010CCC
:101A6000A7EB0C0707EB870701FA07F21043A06307
:101A7000F0BD10B50A4600210023816B21F440110E
:101A8000531E41EA0351816310BD08B50023009342
:101A90000090009B0B440093009B1A6008BD08B5A2
:101AA000024600200090009201F12800009B18449B
:101AB00000900098006880B208BD0A460021416885
:101AC000164B194011434160704741628262704772
:101AD0000A460021416821F01F011143416070470F
:101AE00040B109490831096841F40001064A083249
:101AF000116007E004490831096821F40001024A35
:101B000008321160704700000024014000280140A5
:101B1000003C0140FFFEF0FFFDF7F1FFFFFD3FFF3E
:101B20000246002013680B400BB1012000E00020AA
:101B30007047CA430260704770B502460020002318
:101B400000240B125568CEB205EA060415681D4044
:101B500015B10CB1012000E0002070BD00220A1276
:101B6000D343036070470000002044490860091D0A
:101B70000860091D0860091D086041483F4914318B
:101B80000860704700213D498279002A3AD00A4610
:101B9000126803689A430B461A600A1D12680368AC
:101BA0009A430B1D1A60027911440A6803681A43AC
:101BB0000A60324A0832126803689A432F4B08338E
:101BC0001A601A1D126803689A432C4B0C331A6072
:101BD0004279102A0ED11A1F126803681A43274B44
:101BE00008331A601A1D126803681A43234B0C331A
:101BF0001A600DE02149427911440A6803681A43CA
:101C00000A6005E0027911440A6803689A430A6091
:101C100070470021016001710C2141710021817127
:101C200070471649103109680143144A1032116097
:101C3000704701460020114A143212680A400AB166
:101C4000012000E0002070470C4914310860704703
:101C5000014600200022094B1B6803EA0102074BE2
:101C600014331B680B4013B10AB1012000E00020BF
:101C700070470249143108607047000000040140B9
:101C8000FFFF0F0010B50446BE48844208D1012171
:101C90008014FFF785FA0021A014FFF781FA16E0FF
:101CA000B948844208D101210014FFF786FA0021C7
:101CB0002014FFF782FA0AE0B448844207D10121D8
:101CC000C013FFF77AFA0021E013FFF776FA10BD90
:101CD00010B50022028802F441520B884C8823433D
:101CE0008C882343CC8823430C8923434C8923438A
:101CF0008C892343CC8923431A430280838B4FF280
:101D0000FF74234083830B8A038210BD2DE9F04FBB
:101D100085B005460C464FF0000902274FF0000839
:101D20004FF0010B0026B246A88B4FF2400108404D
:101D3000A88302202884B5F81C90A068022801D14D
:101D400000BF38E0A08810B94FF0010B01E04FF060
:101D5000020B8D48854200D100E000BF6846FFF7C6
:101D600098F9DDF800A0E088B0F5007F0AD14FEACD
:101D70001A2000EB80004000A168B0FBF1F0401D8C
:101D800086B20BE04FEA4B10BAFBF0F000EB80009C
:101D90004000A168B0FBF1F0401D86B20A20B6FBFE
:101DA000F0F606F00108A6EB0800C0F34F074FF667
:101DB000FF7000EA0828022F01DBFF2F02DD022757
:101DC0004FF00008E08840EA080038432884A088E3
:101DD000A1890843618808432188084340F40060D2
:101DE00040EA0909A5F81C9005B0BDE8F08F002174
:101DF000018041808180C180018141818181C181D7
:101E00000721018270470021018041808180C180CB
:101E10000221816000218181704721B1028842F056
:101E20004002028004E002884FF6BF731A4002802D
:101E3000704721B1828B42F48062828304E0828BFE
:101E40004FF6FF331A408283704730B500240023D9
:101E50000C110125A540ABB21AB185881D438580C0
:101E600002E085889D43858030BD1AB183880B438D
:101E7000838002E083888B43838070478181704731
:101E80000146888970474FF6FF62914204D002886C
:101E900042F48072028004E002884FF6FF631A4029
:101EA0000280704721B1828842F00402828004E0FF
:101EB00082884FF6FB731A408280704702884FF287
:101EC000FF731A40028002880A430280704701882B
:101ED00041F480510180704721B1028842F40052E0
:101EE000028004E002884DF6FF731A4002807047BA
:101EF00002460020012901D0108B00E0908A704733
:101F00000146088A7047B1F5804F04D1028842F437
:101F10008042028004E002884BF6FF731A40028080
:101F200070470246002013890B400BB1012000E0EE
:101F300000207047CA4302817047F0B50246002076
:101F400000240023002501F00F070126BE40B4B293
:101F50000B1101269E40B3B2968806EA0305168946
:101F6000264016B10DB1012000E00020F0BD10B5F3
:101F7000002201F00F040123A3409AB2D34303814E
:101F800010BD00000030014000380040003C00401F
:101F9000704700000FB4044910B503AA029800F07E
:101FA000D3F810BC5DF814FB300000202DE9F0419F
:101FB0000E460446002020622046E168884730B380
:101FC000252805D0D4E901219047206A401CF2E77A
:101FD000E168204600278847050018D0A5F1410098
:101FE000192802D820354FF400673246294620468A
:101FF0002760FEF7B5F840B1012804D0F61D26F0A1
:1020000007060836D8E7361DD6E72846DAE7206AFD
:10201000BDE8F0812DE9F0410646002410687529DD
:10202000314616A510D0AFF30080002802DA4042F6
:1020300013A507E031688A0701D512A502E0490718
:1020400004D511A5012401E0AFF3008000210A228C
:1020500006F1240709E0B0FBF2FCB0FBF2F302FB4F
:102060001C00303078541846491C0028F3D1234610
:102070002A463046BDE8F04100F00CB800000000F0
:102080002D0000002B00000020000000704770476A
:10209000704770472DE9F0470D4699469246044631
:1020A00000F124080168880604D5E06921F01001D8
:1020B000216000E00120A84201DD471B00E000276D
:1020C000A1697A1902EB0900081AA0612078C006FC
:1020D00002D42046AFF30080002608E0D4E90121B5
:1020E0001AF806009047206A401C761C20624E4574
:1020F000F4DB2078C0060AD52046AFF3008006E066
:10210000D4E9012130209047206A401C2062381E0B
:10211000A7F10107F4DC07E0D4E9012118F8050074
:102120009047206A401C2062281EA5F10105F3DCBF
:102130002046AFF300802078000602D50220BDE8DB
:10214000F0870120FBE70000074B70B50D467B448C
:1021500000F011F80446284600F020F810B14FF0C6
:10216000FF3070BD204670BD75E7FFFF01694A1C56
:1021700002610878704700B58FB0CDE901310021C8
:10218000059105497944CDE9031011466846FFF7EA
:102190000DFF0FB000BD0000E5FFFFFF007B00F06A
:1021A00080007047754600F02BF8AE460500694682
:1021B000534620F00700854618B020B5FEF7A8FC6E
:1021C000BDE820404FF000064FF000074FF0000838
:1021D0004FF0000B21F00701AC46ACE8C009ACE8B9
:1021E000C009ACE8C009ACE8C0098D46704710B51D
:1021F0000446AFF300802046BDE81040FDF7C2BFA3
:1022000000487047480000204FF47F0C1CEAD012B1
:102210001EBF1CEAD11392EA0C0F93EA0C0F00F0D8
:10222000858090EA010F48BF42F4807240F4000CB0
:1022300041F400002CF07F4120F07F4000B5814246
:10224000A2EB03020FF2081CACEB504EC0F10000F1
:102250009EF800E04FEA4E0E00FB0EFC38BF49002E
:102260004FEA2C1C02F5FA020CFB0EF34FEACE1ECD
:102270004FEA112C4FEAC1210EEB635E42EB224282
:102280000EFB0CFC4FEA1C5300FB03114FEA112C10
:102290004FEA01310EFB0CFC4FEADC4C00FB0C1149
:1022A000C14228BF09184CEB03335DF804EB10EB77
:1022B000410143EBC250B2F57C0F38BF704729D5BE
:1022C00012F0F00F1CBF00F1C04000F0004070475A
:1022D000008182838485868788898B8C8D8E8F91FF
:1022E0009293959697999A9C9D9FA0A2A3A5A7A823
:1022F000AAACAEB0B2B3B5B7B9BCBEC0C2C5C7C94F
:10230000CCCED1D4D7D9DCDFE2E6E9ECF0F3F7FAB2
:10231000FE0000004FEA400C0CF1807CBCF17E4FC7
:1023200028BF7047B0F1C04000F043B990EA010FF8
:102330000CEAD11348BF42F48072624538BF63454E
:1023400007D213F47F0F16D080EA010000F000409E
:10235000704710B500F0E7F8097EFC3E00F005B8C4
:1023600080EA010000F00040704780EA010000F0C0
:10237000004000F01EB912F47F0F04BF02487047FE
:1023800080EA010000F015B90000C07FC10DD1F155
:102390009E0206DB4FEA002343F0004323FA02F0DB
:1023A0007047004207D54FEA4001B1F1FE4F02D21B
:1023B0004FF00000704710B500F0B5F84992248046
:1023C000002070476FEA20007047000010F00041C5
:1023D00048BF4042B0FA80F310FA03F2C3F19D0304
:1023E0000BD051EAC35101EB1220530638BF70479E
:1023F00000F1010008BF20F001007047B0FA80F33F
:1024000010FA03F2C3F19D030AD0D90501EB1220A3
:10241000530638BF704700F1010008BF20F00100EB
:10242000704700004FF47F0C1CEAD0121EBF1CEA5C
:10243000D11392EA0C0F93EA0C0F00F0478090EA58
:10244000010F48BF42F480724FF0004C4CEA00206C
:102450004CEA012102EB0302A0FB0113A2F50002EA
:10246000002918BF43F001035B0028BF4FEA330384
:1024700042EB22425FEA132C4CEBC2502EBFBCEB66
:10248000436FB2F57C0F70474FEA036CBCF1004F0D
:1024900008BF20F00100B2F57C0F38BF70470BD5A4
:1024A00082F0FF0212F5803FC8BF704700F1C040C4
:1024B000D8BF00F00040704700F5000C5FEA4C0CFC
:1024C00048BF7047B0F1C04000F073B890EA010F08
:1024D0000CEAD11348BF42F48072624538BF6345AD
:1024E00004D280EA010000F00040704710B500F00F
:1024F0001AF800BF8900013E00F007B800F009B8E3
:102500005FEA410C5FEA1C6C08D080EA010000F031
:1025100050B85FEA400C5FEA1C6CF6D14FF0004007
:10252000A0F5800070470EF1020E2EF0030E5EF84B
:10253000044B244204D44FEA4102B2F17F4F11D838
:102540004FEA4003B3F17F4F0CD80ED14FEAD07C55
:10255000B2F17F4F0CEB4C0C0CF1020C08BF4CEBB2
:10256000D17C04E04FF0080C01E04FEAD17C0CEB89
:102570004C0324FA03F404F00704B4F1040C06D26B
:102580000EEB840CBDE810404CF0010C6047DFE816
:102590000CF0070802024FF00040A0F5800010BDCB
:1025A0000846420018BFD2F1807288BF00F0004098
:1025B00010BDFF2141EAD050C0057047DC2500085E
:1025C0000000002048000000280100082426000820
:1025D00048000020600600004401000800A24A04F0
:1025E00000000000000000000102030406070809C3
:1025F00000000000000000000000000000000000DB
:10260000F4010000BC0200006400000000000000B3
:102610000000000001020304010203040607080988
:0426200002040608A2
:04000005080000ED02
:00000001FF
